:020000040800F2
:100000000090002065480008CD470008CF47000851
:1000100000000000000000000000000000000000E0
:10002000000000000000000000000000D1470008B0
:100030000000000000000000D3470008D54700087A
:10004000B5480008B5480008B5480008B54800089C
:10005000B5480008B5480008B5480008B54800088C
:10006000B5480008B5480008B5480008B54800087C
:10007000B5480008B5480008B5480008B54800086C
:10008000B5480008B5480008B5480008B54800085C
:10009000B5480008B5480008B5480008B54800084C
:1000A000B5480008B5480008B5480008B54800083C
:0C00B000DD470008B5480008B54800080E
:1000BC0010B5064C2378002B07D1054B002B02D032
:1000CC00044800E000BF0123237010BDDC010020B8
:1000DC000000000054710008044B10B5002B03D035
:1000EC000349044800E000BF10BDC04600000000FA
:1000FC00E0010020547100080023C25C0133002A87
:10010C00FBD1581E7047000002B4714649084900E3
:10011C00095C49008E4402BC7047C04603B471466A
:10012C00490840004900095A49008E4403BC7047F5
:10013C00002243088B4274D303098B425FD3030A1A
:10014C008B4244D3030B8B4228D3030C8B420DD32D
:10015C00FF22090212BA030C8B4202D312120902BB
:10016C0065D0030B8B4219D300E0090AC30B8B42F9
:10017C0001D3CB03C01A5241830B8B4201D38B03A7
:10018C00C01A5241430B8B4201D34B03C01A52414C
:10019C00030B8B4201D30B03C01A5241C30A8B428F
:1001AC0001D3CB02C01A5241830A8B4201D38B027A
:1001BC00C01A5241430A8B4201D34B02C01A52411E
:1001CC00030A8B4201D30B02C01A5241CDD2C30990
:1001DC008B4201D3CB01C01A524183098B4201D30C
:1001EC008B01C01A524143098B4201D34B01C01AF7
:1001FC00524103098B4201D30B01C01A5241C3086F
:10020C008B4201D3CB00C01A524183088B4201D3DD
:10021C008B00C01A524143088B4201D34B00C01AC9
:10022C005241411A00D20146524110467047FFE735
:10023C0001B5002000F0F0F802BDC0460029F7D04F
:10024C0076E7704703460B437FD4002243088B426A
:10025C0074D303098B425FD3030A8B4244D3030B41
:10026C008B4228D3030C8B420DD3FF22090212BA06
:10027C00030C8B4202D31212090265D0030B8B4282
:10028C0019D300E0090AC30B8B4201D3CB03C01A6C
:10029C005241830B8B4201D38B03C01A5241430B47
:1002AC008B4201D34B03C01A5241030B8B4201D337
:1002BC000B03C01A5241C30A8B4201D3CB02C01AA2
:1002CC005241830A8B4201D38B02C01A5241430A1A
:1002DC008B4201D34B02C01A5241030A8B4201D309
:1002EC000B02C01A5241CDD2C3098B4201D3CB01B0
:1002FC00C01A524183098B4201D38B01C01A52415F
:10030C0043098B4201D34B01C01A524103098B4262
:10031C0001D30B01C01A5241C3088B4201D3CB004D
:10032C00C01A524183088B4201D38B00C01A524130
:10033C0043088B4201D34B00C01A5241411A00D2E0
:10034C0001465241104670475DE0CA0F00D0494249
:10035C00031000D34042534000229C4603098B42B9
:10036C002DD3030A8B4212D3FC22890112BA030A41
:10037C008B420CD3890192118B4208D389019211C3
:10038C008B4204D389013AD0921100E08909C30948
:10039C008B4201D3CB01C01A524183098B4201D34A
:1003AC008B01C01A524143098B4201D34B01C01A35
:1003BC00524103098B4201D30B01C01A5241C308AD
:1003CC008B4201D3CB00C01A524183088B4201D31C
:1003DC008B00C01A5241D9D243088B4201D34B0037
:1003EC00C01A5241411A00D20146634652415B1079
:1003FC00104601D34042002B00D54942704763465A
:10040C005B1000D3404201B5002000F005F802BD9E
:10041C000029F8D016E770477047C0468446101C78
:10042C0062468C46191C634600E0C0461FB500F0BE
:10043C00F5FF002801D40021C8421FBD10B500F003
:10044C004FFF4042013010BD10B500F0E7FF00280F
:10045C0001DB002010BD012010BDC04610B500F01E
:10046C00DDFF002801DD002010BD012010BDC046BD
:10047C0010B500F06FFF002801DC002010BD01203A
:10048C0010BDC04610B500F065FF002801DA002051
:10049C0010BD012010BDC046002B11D1002A0FD178
:1004AC00002900D1002802D00021C943081C07B440
:1004BC00024802A14018029003BDC0465DFFFFFF39
:1004CC0003B4684601B5029800F006F8019B9E46FD
:1004DC0002B00CBC7047C046F0B557464E46454678
:1004EC00DE46E0B5040083B00D00924699468B427F
:1004FC002FD82CD04946504601F074FE2900060036
:10050C00200001F06FFE331A9846203B9B4600D525
:10051C0074E053465A4693401F005346424693405C
:10052C001E00AF4229D826D05B46A41BBD41002B30
:10053C0000DA79E0002200230092019301235A464D
:10054C0093400193012342469340009319E0824269
:10055C00D0D900220023009201930C9B002B01D0D8
:10056C001C605D600098019903B03CBC90469946B4
:10057C00A246AB46F0BDA342D6D90022002300927E
:10058C0001934346002BE8D0FB0772081A434646FA
:10059C007B080EE0AB4201D1A2420CD8A41A9D41BB
:1005AC00012024196D410021013E24184D41002EDB
:1005BC0006D0AB42EED9013E24196D41002EF8D184
:1005CC005B460098019900196941002B22DB2B0036
:1005DC005A46D3402A004446E2401C005B461500B4
:1005EC00002B2CDB26009E40330026004746BE40E5
:1005FC003200801A994100900191AEE742462023C7
:10060C009B1A5246DA40414613004A468A4017006C
:10061C001F4382E7424620239B1A2A0046469A40F3
:10062C002300F3401343D5E74246202300219B1AB5
:10063C000022009101920122DA40019282E74246A7
:10064C00202326009B1ADE402F00B44697406646B6
:10065C003B003343C9E7C046F8B54546DE4657462E
:10066C004E460C03E0B54E00C90F88460D00610ADA
:10067C00440F0C43C70019035800DB0F9B464B0A71
:10068C00510F0B43760D400D1900D200D84500D107
:10069C00AEE0351A002D00DCF6E000280FD1134334
:1006AC0000D1DBE06B1E002B00D037E1BA1A974269
:1006BC00BF41641A7F42E41B0126170024E0C64B9D
:1006CC009E424DD080231B041943382D00DD07E1D9
:1006DC001F2D00DD38E12020431B9A460B005046AD
:1006EC008340994613004846EB401843030050469C
:1006FC008240501E8241E9401A43BA1A611A97424D
:10070C00A441170064420C1B230262D56402650AE3
:10071C00002D00D1DFE0280001F046FD0300083B6E
:10072C001F2B00DDD2E020223C00D21A9D40D44089
:10073C009F4025439E4200DDC4E09E1B731C1F2B73
:10074C0000DDF1E0202238002900D21AD840914077
:10075C0097402C000143781E8741DC4000260F4354
:10076C007B0709D00F233B40042B05D03B1DBB421C
:10077C00BF417F42E4191F0023022CD5964B013652
:10078C009E4200D19AE04546944BFF081C406007FE
:10079C00760564020743240B760D00212403230BFA
:1007AC000C0D8F4A24051C431440330523435B0076
:1007BC00ED075B082B43380019003CBC904699466A
:1007CC00A246AB46F8BD6446044300D111E20400D6
:1007DC0067467B07C6D145466007FF080743E40818
:1007EC007D4B9E4230D024037605240B760DD4E746
:1007FC00331A9A46002B78DD002831D07648864291
:10080C00AED08020000401435346382B00DCE9E0D5
:10081C000A43511E8A410021D219BA42BF4109191B
:10082C007C4217000C192302D3D56B4B01369E4228
:10083C0000D13AE10120694B1C407B0807401F4363
:10084C00E007074364088BE723003B4300D1CBE16F
:10085C008022120314432403240B9EE72E007FE70F
:10086C000800104300D1B4E0581E002800D0DEE090
:10087C00BA18BA429B4164185B42E418170001266F
:10088C002302A6D50226D5E7002D6ED1701C40059B
:10089C00400D012800DCF9E0B81A844687428041FB
:1008AC00E51A40422D1A280200D489E0D71BBA421F
:1008BC0092411C1B5242A51AD84629E745460024F2
:1008CC0000276AE7454CF61A2C4049E73D002838CA
:1008DC00854000272EE7380001F066FC20301DE72C
:1008EC000A43511E8A41002107E7002B00D0F3E098
:1008FC00701C43055B0D012B00DCADE0364B9842C0
:10090C0000D1D1E0BA18BA42BF4164187F42E41951
:10091C00E707520817436408060021E72E48854272
:10092C0000D193E01D00D0E629001F3EF140202BA2
:10093C0000D18DE04022D31A9D402F437D1EAF4144
:10094C0000240F43002644E72B000800203BD8402E
:10095C000300202D00D17DE04020451BA9400A4317
:10096C00511E8A4100211A43C7E6002E50D01A4E60
:10097C00B04257D080266B429946360434434B46DE
:10098C00382B00DDD6E01F2B00DD35E12026F51AD3
:10099C002600AE40B2463E00DE40AC463500564620
:1009AC002E436546AF407D1EAF41DC403743D71B1D
:1009BC00BA4292410C1B5242A41A0600D846A3E636
:1009CC00644667462C4300D0A2E60025002600278B
:1009DC0006E71E00C4E6C046FF070000FFFF7FFFCE
:1009EC00FFFF0F801F2B63DC2020C31A08009840E8
:1009FC009C46834653461000D84003005846184383
:100A0C0063469A40531E9A4153460243D94003E72A
:100A1C0026003E4306D0EB439946002BC7D0944E9C
:100A2C00B042ACD10C0017000600D84698E6904BAB
:100A3C009A450BD08246E7E6002800D09EE01800CD
:100A4C00104300D1E9E01C001700D846884E87E619
:100A5C00002572E7002182E723003B43002E00D0E3
:100A6C00ABE0002B00D1E7E00B00134300D177E69D
:100A7C00BA18BA42BF4164187F42E419230200D469
:100A8C00F2E07C4B17001C40060069E6200038435E
:100A9C00002ED1D100285BD11C00144300D1A8E05A
:100AAC001C001700D8465BE606000024002797E6DA
:100ABC0050460B002038C34099465346202B00D19A
:100ACC0095E0402350461B1A99400A43511E8A4117
:100ADC004B4600211A439FE6002E30D126003E43A0
:100AEC0067D0DB439A46002B1CD0614EB04260D0DD
:100AFC005346382B00DD96E01F2B00DD9FE02026AF
:100B0C00F31A26009E409C46B34653463E00DE40F8
:100B1C0033005E461E4363469F407B1E9F415346F7
:100B2C00DC403743BF189742924164185242A418D4
:100B3C00060078E627437C1EA741002437E74C4E7D
:100B4C00B04236D080265B4236049A463443CFE717
:100B5C001800104300D103E6B81A84466745AD412E
:100B6C00E01A6D42401B050200D42CE6D71BBA429A
:100B7C0092411C1B5242A41AD846F1E518001043AE
:100B8C0000D163E7F808670707438020E4080003F7
:100B9C00044208D0DD08054205D1D208590711439B
:100BAC000F002C00D8467B0FE4001C43FF00304E96
:100BBC00D6E50C0017000600D2E5002B38D00B0050
:100BCC00134300D142E7F808670707438020E40885
:100BDC0000030442E7D0CB080342E4D1D208490712
:100BEC0011430F001C00DEE700270024D5E500218F
:100BFC006BE700250027F3E54E462500203EF54027
:100C0C004B462E00202B2DD04025ED1AAC4027430F
:100C1C007C1EA74100243743C9E680240025240309
:100C2C00134E0027DCE527437C1EA741002479E7FF
:100C3C000C0017000E4E93E50C00170090E556467D
:100C4C002300203EF34099465346202B0ED04023E0
:100C5C0056469B1B9C4027437C1EA7414B460024B9
:100C6C001F435FE70024D2E71700B2E50024F2E748
:100C7C00FF070000FFFF7FFFF0B557464546DE46F5
:100C8C004E46E0B54C000E0387B0834692461D00DD
:100C9C008046360B640DCF0F002C4FD06F4B9C420F
:100CAC0035D08023420F1B04F6001343334399467F
:100CBC00C30098466A4B00269C4600236444039369
:100CCC002B031B0B9B466B00ED0F50465B0D0195E8
:100CDC005ED0624A934253D05A46D1008022400FD4
:100CEC00120402430A4393465246D1005C4A94468E
:100CFC00002263443800684084460290E41A16438C
:100D0C000F2E00D9B4E0574BB6009B599F460300F9
:100D1C00334399466CD1002398460233082603933B
:100D2C00CEE7CB464146039A0197022A65D1019B37
:100D3C004A4C9C460023002298466BE00300334348
:100D4C0099464ED0002E00D1BCE1300001F02CFAB7
:100D5C0003000B3B1C2B00DDACE11D22D31A5A46C1
:100D6C000100DA4008398E401300334399465B4644
:100D7C008B40984600233C4C0026241A03939FE793
:100D8C0051465A46114329D1002293460232B1E70B
:100D9C00594601431ED05B46002B00D19EE15846BC
:100DAC0001F002FA03000B3B1C2B00DD8FE102006B
:100DBC005946083A91408B461D21CB1A5146D940D1
:100DCC000B0059460B4351469B469140264B002243
:100DDC001B1A8FE7002301229B468BE75146032207
:100DEC0088E700239846013304260024039367E721
:100DFC000323B14603930C2662E7032A00D15CE27D
:100E0C00019B012A00D0E4E113409C4600230024FE
:100E1C000022984600211203130B0A0D12051A43E7
:100E2C002305124C40462240134362465B00D20716
:100E3C005B081343190007B03CBC90469946A24688
:100E4C00AB46F0BD002380229C4612039846034C0F
:100E5C00E0E70023014C00229846DBE7FF07000087
:100E6C0001FCFFFF707100080DFCFFFFFFFF0F80FE
:100E7C00D94500D939E100D134E1002346464D462D
:100E8C009A46013C5B460A0E1B021A430B02170CD6
:100E9C00039313041B0C3900280090460193FFF7B1
:100EAC0047F90200019B83465A43280039009146BA
:100EBC00FFF7C4F9350C09040D43A9450DD95B4660
:100ECC004544013BA84500D93AE1A94500D837E192
:100EDC0002235B429C464544E3444B46EB1A3900E3
:100EEC0018000493FFF724F9019B050043433900D4
:100EFC0004989946FFF7A2F9330409041B0C0B4321
:100F0C00994509D943446A1E984500D91AE1994577
:100F1C0000D817E1023D43444A469B1A5A46120434
:100F2C002A4303999346100C0A0C914609045A461D
:100F3C00090C4E460D001204120C45430591514309
:100F4C007243704352190E0CB218954203D9802586
:100F5C006D02AC466044150C09041204090C2818E7
:100F6C005218834200D2CEE000D1C8E01D1A53467D
:100F7C009E1AB24592415242AB1A9A46984500D1FC
:100F8C0017E139001800FFF7D3F8019B0500434324
:100F9C00390050460493FFF751F904980B04310CB7
:100FAC001943884209D941446B1E884500D907E191
:100FBC00884200D804E1023D4144049BCB1A18003E
:100FCC0039000493FFF7B4F8019B82464343390080
:100FDC0004980193FFF732F901980B043104090CC2
:100FEC00194388420DD953464144013B884500D9E9
:100FFC00E8E0884200D8E5E002235B429C4641448D
:10100C00E244019B2D04CE1A51462943059D4F46BF
:10101C002A000B04080C1B0C5A4345437B437843B2
:10102C005B19170CFB189D4203D980256D02AC4649
:10103C0060441D0C12041B04120C28189B188642C9
:10104C0000D293E000D18EE001231943A04BE318AA
:10105C00002B00DC99E04A0700D09EE05A46D201F2
:10106C0006D55A469B4B1A4080239346DB00E31867
:10107C00994A934268DD0123029A984C1A40002346
:10108C00944698460022C5E680224B461203134232
:10109C000AD05B46134206D11A431203120BAC461C
:1010AC0088468E4CB6E64B461A431203120BBC46CE
:1010BC008A4CAFE603005A46283B9A4000239146DF
:1010CC00984657E6584601F06FF8203040E603008A
:1010DC005246283B9A400021934677E601F064F88B
:1010EC0020305FE6884500D2C7E64B46DE075D0838
:1010FC0043465B081E434346DB079A46C2E600257F
:10110C00924500D333E7039E5946B446E244B245B8
:10111C00AD416D424544EB180139984507D29842D0
:10112C0000D97FE000D1BCE01D1A8B461FE7984523
:10113C00FAD1039D5545F2D943468B461D1A16E745
:10114C009B46CAE61500E7E65A46C90852070A4309
:10115C005B0590465C0D5A460123029952021940D8
:10116C00120B8C4656E6002B00D16FE746444A1E04
:10117C00B04529D91100864200D065E7039A934205
:10118C0000D061E762E7012149420120C21A382AE6
:10119C0021DD029B03409C4638E60F220A40042ABC
:1011AC0000D15BE70A00111D9142924152429344D7
:1011BC0054E7474BE318002BE5DD01225242F2E7DE
:1011CC001D00FAE69A461CE7B04239D86ED01100E1
:1011DC003AE702933AE71F2A3CDC20239B1A0C00C7
:1011EC005846994098404B1E99415B46D440D34099
:1011FC00204308431A00430709D00F230340042B54
:10120C0005D00100081D88429B415B42D218130295
:10121C003AD50123029A01241A4000239446984699
:10122C000022F7E5022149428C46039DE344AC467B
:10123C00E244AA45AD416D424544ED182D1A96E69F
:10124C008A1E03994D008D428941494241447618CA
:10125C0003958FE71F204042C31A5846D84003001D
:10126C00202A28D040205D46821A954029434A1EE8
:10127C0091411943072300220B4009D00F23002270
:10128C000B400800042BBDD1010053075202120B76
:10129C00C9081943012388460299002419408C4639
:1012AC00B8E55245BED88B46002560E6039D9D42AD
:1012BC00C6D3110062E70025D8E780225B461203F3
:1012CC001A43019B1203120B9C468846034CA1E562
:1012DC00FF030000FFFFFFFEFE070000FF070000FA
:1012EC00F0B54F464646D6465C00C0B51F03DB0F33
:1012FC009A46174B0E034D0084468046360B6D0DF7
:10130C00C90F91463F0B640D01209D4208D09C42B1
:10131C0001D0A5420BD01CBC90469946A246F0BD0C
:10132C0063463343F7D1AC42F5D13A43F3D10120B4
:10133C00BE42F0D1C845EED1514507D0002DEAD1BF
:10134C0063461E433000461EB041E4E70020E2E74E
:10135C00FF070000F0B54546DE4657464E46E0B561
:10136C001F033D0B2C4F0E034C00AB465D00844617
:10137C00360B640DC90F90466D0DDB0FBC422AD0A5
:10138C00254FBD422DD0002C0FD130430700814694
:10139C0078427841C0B2002D17D15F463A4314D140
:1013AC004B460020002B0AD006E0002D02D15846F7
:1013BC00024301D0994218D04842012108433CBC59
:1013CC0090469946A246AB46F0BD0028F2D00120CB
:1013DC00013B1843F3E737000743D1D002204042CA
:1013EC00EDE75F461743CED0F8E7AC42E4DC03DA16
:1013FC00481E01210843E2E75E45DDD806D00020F7
:10140C005E45DCD20123481E1843D8E7C445D3D827
:10141C000020C445F6D3D2E7FF070000F0B54E46D6
:10142C004546DE4657465C00E0B51F03DB0F994688
:10143C002A4B0E034D00C90F8446360B6D0D8B469F
:10144C0090463F0B640D9D4220D0244B9C4222D0F1
:10145C00002D12D1304343424341DBB2002C1FD04C
:10146C00002B0CD04B460120013B034318003CBC25
:10147C0090469946A246AB46F0BD002C16D0CB4503
:10148C0017D05B46594201230B43EFE7310002238F
:10149C000143EBD1D9E7390002231143E6D1D7E759
:1014AC003A43DDD100230028E0D0EAE73A43E6D105
:1014BC00E7E7A542E5DC05DBBE42E2D807D0002316
:1014CC00BE42D3D25946012301390B43CEE7C44562
:1014DC00D7D80023C445F5D3C8E7C046FF070000A2
:1014EC00F0B557464546DE464E46E0B50C039846E9
:1014FC004E00230B87B0070092469B46760DCD0F0E
:10150C00002E6BD06D4B9E4235D080245B46420F33
:10151C002404DB0014431C43C3009946684BA346C8
:10152C009C46002300276644029343461C035A0042
:10153C00DB0F5046240B520D984600D176E05F4BE2
:10154C009A426DD08023410F1B040B435C49E4008D
:10155C008C461C43C300002062444146B6186940C7
:10156C00721C0191944607430F2F00D9B0E0554AE5
:10157C00BF00D25997465B460343994600D087E09B
:10158C0000239B46023308270293CEE74246019282
:10159C00022867D0032800D10EE2012800D062E1B6
:1015AC00002300240022994601990140CDB200216C
:1015BC0012030B0D120B1B051343434A2405134056
:1015CC001C436400ED0764082C434846210007B017
:1015DC003CBC90469946A246AB46F0BD03439946A7
:1015EC004FD05B46002B00D189E1584600F0DCFD62
:1015FC0003000B3B1C2B00DD7AE11D22D31A3A00B1
:10160C0001005C46DA4008398C4013008F402343BC
:10161C009B46B94600232D4E0027361A029384E7C9
:10162C00534623432AD10024022096E753462343F2
:10163C0020D0002C00D157E1200000F0B5FD0300B4
:10164C000B3B1C2B00DD49E11D21CB1A514602003E
:10165C00D9405346083A944093400C431B4A121A03
:10166C0000207AE70125019B144C1D400023002229
:10167C0099469CE70024002201206EE75346032084
:10168C006BE700239B4601330427002602934CE7AB
:10169C00032381460C27029347E780220023002571
:1016AC0012039946054C82E75C464B4602986FE75D
:1016BC005C464B46019502986AE7C046FF0700005E
:1016CC0001FCFFFFB0710008FFFF0F800DFCFFFF56
:1016DC004A464946170C1A0C1B041B0C080419002B
:1016EC00000C41431500884619007D43794303954E
:1016FC0089462900150045434D44029545462D0C5D
:10170C00AA46029D5544A94506D98A46802149021C
:10171C008946CA4451460391290C04914146090457
:10172C002D04090C88462900250C24044144240C62
:10173C000591210041438846210079438A4668433C
:10174C00414650448146080C48446F43824503D9B6
:10175C008021490289464F44010C8946390049448D
:10176C00029141460F0404993F0C88460004C019AD
:10177C0080444146049159460F0C0904090C8846D3
:10178C0059438A4639005143894641464A4351469A
:10179C00090C8B467B43D2185A44934203D98023BD
:1017AC005B029B46D94451460904090C8A464146C2
:1017BC0061437C43130C12044B445244A1468A46A9
:1017CC003C0041466C434D4351464D440F0C7D1932
:1017DC00A94503D98021490288464444049F0399B2
:1017EC00B84641448B468345804141428846514628
:1017FC0008042F04000C3F1858460299101889460B
:10180C00904292414F44BA46524299469346C24442
:10181C00D144CB448F42BF41C245894199459B413C
:10182C00934592417F4249422D0C52420F435B42F9
:10183C0013437F19FF185B463C19DB0D059A6402B4
:10184C001C43430213435D1EAB415A46C00D034378
:10185C0052021343E20156D501205A0803401343A8
:10186C00E207134364085A48604400284DDD5A07C8
:10187C0009D00F221A40042A05D01A1D9A429B4106
:10188C005B42E4181300E20104D58020514AC000E9
:10189C0014406044504A904200DDE3E60125DB0829
:1018AC0062071A436402019B9146220B4405640DA6
:1018BC001D407CE6802259461203114208D0144286
:1018CC0006D122431203120B45469946434C6EE651
:1018DC005B461A431203120B404C68E60300544655
:1018EC00283B9C400023B9E600F05EFC2030A6E6C5
:1018FC000300283B9F400023BB4699468AE600F034
:10190C0053FC203074E6B446ADE701252A1A382A78
:10191C0006DD019B00241D4000230022994646E66B
:10192C001F2A21DC20252000AD1A1E00AB40A84048
:10193C00D6405D1EAB4130431843D440430709D019
:10194C000F230340042B05D00300181D98429B4124
:10195C005B42E418230221D50125019B01241D4083
:10196C0000230022994622E61F2521006D42281AE9
:10197C00C1400800202A1DD05F35AA1A9440234389
:10198C005C1EA341072503431D400022002D09D0F6
:10199C000F2200241A401800042AD6D10300650730
:1019AC006402220BDB082B4301259946019B002482
:1019BC001D40FCE50024E2E78022012512032243AE
:1019CC0001991203120B0D409946044CEFE5C046E9
:1019DC00FF030000FFFFFFFEFE070000FF070000F3
:1019EC00F0B54646D6464F460C03C0B5CD0F4E005B
:1019FC00610A440F0C43C1005800400D84468A46CE
:101A0C000F001903500F490A0143C648760DA8462A
:101A1C00DB0FD200844500D1D8E001204340AB421B
:101A2C0000D1A6E06046351A002D00DC05E1002847
:101A3C0010D10B00134300D1D7E06B1E002B00D04C
:101A4C004BE153469F1ABA458041641A4042241A0E
:101A5C0001261EE0B34B9E4248D080231B04194341
:101A6C00382D00DD19E11F2D00DD4CE120230F0086
:101A7C005B1B10009A409F40E840531E9A41E9407E
:101A8C00074317435346DF1B611ABA45A44164420E
:101A9C000C1B230200D4C5E06402650A002D00D1A2
:101AAC00F6E0280000F080FB0300083B1F2B00DD54
:101ABC00E9E020223C00D21A9D40D4409F402543AF
:101ACC009E4200DDDBE09E1B731C1F2B00DD0AE138
:101ADC0020223800D21A290097402C009140D8407F
:101AEC007A1E9741DC40002601430F437B0709D047
:101AFC000F233B40042B05D03B1DBB42BF417F4213
:101B0C00E4191F00230225D5864B01369E4200D1D5
:101B1C00AFE0854B01251C4043466207FF08640279
:101B2C0076051743240B760D1D4000212403230B4F
:101B3C000C0D7E4A24051C431440330523435B00E3
:101B4C00ED075B082B43380019001CBC90469946E6
:101B5C00A246F0BD012543466207FF081743E4087F
:101B6C001D40704B9E4236D024037605240B760D17
:101B7C00DBE76346F31A002B00DC94E06046002898
:101B8C0035D068488642B1D080273F043943382B82
:101B9C0000DCFDE00A43170000217A1E97415744F0
:101BAC0057458041091944420C1923023AD55D4B23
:101BBC0001369E4200D14BE101225B4B1C407B085D
:101BCC0017401F43E207174364088FE708001043D0
:101BDC0000D024E721E723003B4300D1B9E1802268
:101BEC00120314432403240B9FE72E007EE7080006
:101BFC00104300D1CAE0581E8446002800D0E7E00C
:101C0C005244524580416418404224181700012662
:101C1C00230207D50226CFE764462C4300D1B3E15B
:101C2C002C0067467B0700D062E76307FF081F4361
:101C3C0001254346E4081D4093E7002D78D1751C1F
:101C4C006D056D0D012D00DCF2E05046801A8245C9
:101C5C00BF41651A7F42ED1B8446280200D48CE0FC
:101C6C005046171ABA4292410C1B5542651B9846B6
:101C7C0014E70125434600241D40002755E72A4C54
:101C8C00F61A2C4032E73D0028388540002717E72C
:101C9C00380000F089FA203006E70A4317000021CB
:101CAC007A1E9741EEE6002B00D0E5E0731C9C46B3
:101CBC005B055B0D012B00DC9FE01A4B9C4500D1B2
:101CCC00C5E0524452458041641840422418E7074D
:101CDC00520817436408664608E71248854200D14B
:101CEC0085E01D00BCE629001F3EF140202B00D1F1
:101CFC007FE04022D31A9D402F437D1EAF4100242C
:101D0C000F4300268EE72B000F00203BDF40202DD9
:101D1C0071D040235D1BA9400A43511E8A4100210A
:101D2C001743AFE6FF070000FFFF7FFFFFFF0F80A9
:101D3C00002E3ED0B34EB44545D0802636046D42BD
:101D4C003443382D00DDA8E01F2D00DD1FE12026D7
:101D5C0027005046761BB740E84007435046B0403A
:101D6C00461EB041EC403843171ABA4292410C1B44
:101D7C005242A41A664698468BE6644667462C4344
:101D8C0000D08BE6002500260027EAE61E00ADE613
:101D9C001F2B60DC2027F81A0F00844687401000A8
:101DAC00D840074360468240501E8241D9401743B9
:101DBC00F5E626005046064305D0ED43002DD3D062
:101DCC00904EB445BDD10C001700664698468DE682
:101DDC008C4883420BD06346D9E6002D00D096E0A8
:101DEC000800104300D1E2E00C0017009846854E25
:101DFC007CE6002580E700218EE723005046034354
:101E0C00002E00D0A8E0002B00D1DEE00B00134325
:101E1C0000D16BE65244524580416418404224186C
:101E2C001700230200D4FDE6774B66461C405DE6A6
:101E3C00250050460543002ECFD1002D4FD10C006C
:101E4C00144300D1A0E00C00170098464EE66646FD
:101E5C000024002785E61F000800203FF8400700FB
:101E6C00202B00D18EE04020C31A99400A43511E0A
:101E7C008A410021174392E6002E14D126005046C9
:101E8C00064362D0DB43002B5CD18718974292410A
:101E9C0064185242A418664687E650462043441EF6
:101EAC00A041002460E7574EB4454ED0802636043E
:101EBC005B423443382B00DD7FE01F2B00DD8BE0D1
:101ECC00202627005046F61AB740D8400743504604
:101EDC00B040461EB0410743DC40BF18D6E70D00AA
:101EEC00154300D102E65046801A8245BF41651A5F
:101EFC007F42ED1B8446280200D48DE65046171A0B
:101F0C00BA4292410C1B5242A41A9846EEE50D00BF
:101F1C00154300D16BE750466707C0080743802084
:101F2C00E4080003044207D0CD08054204D12C007C
:101F3C009846D70849070F437B0FE4001C43FF006A
:101F4C00304ED3E52F4EB445B4D10C001700664685
:101F5C00CCE500270024E8E5002B39D00B00134317
:101F6C0000D144E7C008670707438020E40800035A
:101F7C000442E1D0CB080342DED1D70849070F4316
:101F8C001C00D9E7002171E700250027E9E52E00A8
:101F9C002700203EF740202D2FD04026751BAC404B
:101FAC0050462043441EA04100243843DCE68024E4
:101FBC0000252403134E0027D3E550462043070089
:101FCC00781E87410024BF1860E70C0017008DE5D0
:101FDC000C0017000B4E89E51E002700203EF74031
:101FEC00202B0CD04026F31A9C4050462043441E14
:101FFC00A04107430024BF1848E70024D0E7002481
:10200C00F3E7C046FF070000FFFF7FFF70B50E4EE1
:10201C000D031C0349005B002D0B490D240B5B0DBC
:10202C00B14204D0084900208B4208D070BD054352
:10203C000120002DFAD1044900208B42F6D1144323
:10204C002000441EA041F1E7FF07000030B5134DFE
:10205C000A034B00120B5B0DC90F0024AB4210DDC1
:10206C000F4CA3420FDC80240E4D64032243ED1A67
:10207C001F2D0BDD0C48C31ADA405442002900D145
:10208C001400200030BD094BCC18FAE7084CE8408E
:10209C00A44663449A400243EFE7C046FE030000A7
:1020AC001D0400003304000013040000FFFFFF7F39
:1020BC00EDFBFFFF70B5002830D0C317C4185C408F
:1020CC00C50F200000F070F8174B184A1B1AD21AD3
:1020DC001F2A18DD164AD21A9440002224035B05ED
:1020EC00240B5B0D0021100024030A0D240B120598
:1020FC002243104C1B05224013435B00ED075B0889
:10210C002B43190070BD210091400A000B21081AC5
:10211C00C4405B052403240B5B0DE3E7002500237F
:10212C0000240022DEE7C0461E0400003304000039
:10213C0013040000FFFF0F8010B5041E28D000F020
:10214C0033F8154B154A1B1AD21A1F2A15DD144ADF
:10215C00D21A9440002224035B05240B5B0D002152
:10216C00100024030A0D240B120522430D4C1B05F1
:10217C00224013435B00590810BD210091400A0016
:10218C000B21081AC4405B052403240B5B0DE6E706
:10219C00002300240022E2E71E04000033040000A8
:1021AC0013040000FFFF0F801C2101231B04984225
:1021BC0001D3000C10391B0A984201D3000A0839CC
:1021CC001B09984201D30009043902A2105C401883
:1021DC007047C04604030202010101010000000027
:1021EC000000000010B5002903D1FFF7DDFF2030FF
:1021FC0002E0081CFFF7D8FF10BDC046104B70B5AD
:10220C0019680500002901D1012070BDFA20800059
:10221C00FDF78EFF0B4B01001868FDF789FF00F0EE
:10222C0089F8041EF0D1032DEED8020001202900FC
:10223C00404200F043F8044B20001D60E5E7C04627
:10224C000000002008000020040000208023084A21
:10225C005B00116810B50B4313600020FFF7CEFF35
:10226C00041E03D102F022FA200010BD0124FBE76A
:10227C0000200240034A0449136809685B18136084
:10228C007047C0460402002000000020014B186873
:10229C007047C0460402002070B50400FFF7F6FF3B
:1022AC000500631C02D0044B1B68E418FFF7EEFF1B
:1022BC00401B8442FAD870BD0000002070B5890123
:1022CC00002812DB8308134A03249B009B18FF226F
:1022DC002040A0401400C025844011408140AD0036
:1022EC005E59A6433143595170BD03240F23C0B22C
:1022FC0003402040A040FC34250021408540814013
:10230C00083B054A9B089B009B18DA69AA431143BA
:10231C00D961E9E700E100E000ED00E0002805DB11
:10232C001F2318401E3B8340014A13607047C04670
:10233C0000E100E0094A431E012093420DD8C02160
:10234C00074A08485360036A09061B021B0A0B4321
:10235C00036200200723906013607047FFFFFF00AB
:10236C0010E000E000ED00E0F8B50123411DCB7753
:10237C00841DE27F022A03D00422C2631800F8BD38
:10238C000E2602681568B54315601568466C9D43AA
:10239C0015603268114D2A4032601C22AC46056C27
:1023AC000F4E2A40934077683B437360C26C836C3A
:1023BC005A60036D002B06D065461A682A401A60D5
:1023CC00436D826D5A600123E3770024826BCC77D6
:1023DC001300A242D2D090472300CFE7FFFEFFFFAD
:1023EC0000000240F0B50B6885B002930023019108
:1023FC00029ADA4001D105B0F0BD01229A40039255
:10240C000399029A0A40009200D185E0019A1021AA
:10241C00526816008E43022E0ED107251D40AD00CA
:10242C000139A940DC08A4000419276A8F430199DB
:10243C000969A9400F43276203245F00BC40E443B1
:10244C000568013E2540AC4603251540BD4061465C
:10245C000D430560012E0FD801998668CD68264082
:10246C00BD40354385604668039915098E430121AB
:10247C000D409D4035434560C56801992C408D68E1
:10248C008021BD4049052C43C4600A4244D0032638
:10249C000F2422499D081E40AD00F6006D18B44073
:1024AC00A0212F6EC905A743002488420CD01C49DB
:1024BC000134884208D01B490134884204D01A499F
:1024CC000334884200D1023CB44000993C430E00D6
:1024DC002C66164CCD43E76F3E43D10301D43E002E
:1024EC002E40E667124E009FF46F2743910301D4F0
:1024FC002C402700094CF7672768009E3E43D10209
:10250C0001D43E002E4026606668009F374392023D
:10251C0001D42E4037006760013369E70018024090
:10252C000004005000080050000C00500418024039
:10253C0008180240002A01D0816170478162FCE7D3
:10254C0003689A69920701D500229A62012299695F
:10255C00114202D199690A439A61704770B5049E81
:10256C0089053343890D194380230468DB00700D02
:10257C001840044B656812041843854311432943E2
:10258C00616070BDFF63FF03F8B504000E00170017
:10259C001D002268936933409B1B59424B41BB423F
:1025AC0001D0002017E06B1CF4D0FFF76FFE069BE8
:1025BC00C01A854201D3002DEBD12022636C01207F
:1025CC0013436364230041331A7022000023423208
:1025DC00403413702370F8BDF8B503680400986993
:1025EC0010230E00170018402025002818D1F8BD24
:1025FC00721C16D0FFF74AFEC01B864201D3002E78
:10260C000ED12022636C13436364230041331A7090
:10261C002200002342324034137001202370E6E77D
:10262C0023689A692A42E3D010222000DA61DD6126
:10263C00FFF786FF2268064953680B40536004235A
:10264C00626C13436364230041331D70E0E7C046A2
:10265C0000E800FEF8B504000D0016000227236800
:10266C009B693B4201D00020F8BD320029002000BC
:10267C00FFF7B2FF002815D16B1CF0D0FFF706FE58
:10268C00801B854201D3002DE9D12022636C1343BA
:10269C006364230041331A70220000234232403419
:1026AC00137023700120DFE773B514001E00DAB23B
:1026BC00154B0500009380235B04FFF74FFF079A2F
:1026CC0006992800FFF7C6FF002801D0012076BD2F
:1026DC002B68012E0DD1E4B29C62079B0022009363
:1026EC008021069B2800FFF74FFF431E9841C0B284
:1026FC00EDE7220A9A620699079A2800FFF7AAFFCB
:10270C000028E3D12B68E6E70020008073B50500B4
:10271C0014001E00DAB2154B00930023FFF71EFFC6
:10272C00079A06992800FFF795FF002801D0012091
:10273C0076BD2B68012E0DD1E4B29C62079B002262
:10274C0000934021069B2800FFF71EFF431E984173
:10275C00C0B2EDE7220A9A620699079A2800FFF7A1
:10276C0079FF0028E3D12B68E6E7C0460020008003
:10277C00F8B504000D001600202723689B693B4226
:10278C0001D00020F8BD320029002000FFF724FF03
:10279C00002813D1FFF77AFD801B854201D3002D51
:1027AC00EBD12022636C13436364230041331A7012
:1027BC002200002342324034137023700120E1E7E1
:1027CC0070B504000120002C3FD0250041352B783A
:1027DC00DBB2002B05D1220040321370200001F037
:1027EC0085FF242301212B702368E0681A68A668F2
:1027FC008A431A6061681A4A0A401A619968194A30
:10280C0011409960012821D180210902314399603E
:10281C005868154901435960D96800200A40DA60AC
:10282C00616922690A43A16909020A43DA60216AD3
:10283C00E2690A431A60012219680A431A602023CC
:10284C0060642B7020634234207070BD84210902B7
:10285C00314399600228DBD1802109015960D7E707
:10286C00FFFFFFF0FF7FFFFF00800002F0B50700C5
:10287C0089B007930EAB069204CB41371B880492A8
:10288C0005933B7804000D000220202B08D1002A70
:10289C0002D0059B002B05D180239B006364012093
:1028AC0009B0F0BD2300403303931B78012BF7D004
:1028BC000122039B1A70FFF7E9FC80210290009023
:1028CC001923012209022000FFF75EFE061EE6D145
:1028DC0021233B7027001F3342373B70049B6064FD
:1028EC0063626B469B8A60636385029B069A0193C5
:1028FC00109B290000932000079BFFF7D5FE0028B2
:10290C0002D0039B1E70CAE7638DFF2B54D9FF22A4
:10291C00802322855B040090290020008026FFF78D
:10292C001DFEB604029A10992000FFF793FE0028B2
:10293C00B5D1636A22681978013391626362638D41
:10294C00228D013B9BB26385013A638D92B2228545
:10295C00002B18D0002A16D1029B80210093200056
:10296C00109BFFF711FE002800D098E7638DFF2B1A
:10297C002AD9FF2323858023FF2200905B042900A2
:10298C002000FFF7EBFD638D002BCBD1029A109941
:10299C002000FFF7EDFE002800D080E720212368FF
:1029AC000D4DD9615A682A405A6023004034413396
:1029BC0019703870207073E78023628D9B0492B27B
:1029CC002285D2B20090A7E7628D330092B22285A5
:1029DC00D2B20090D3E7C04600E800FEF0B5070085
:1029EC0089B007930EAB069204CB41371B88049237
:1029FC0005933B7804000D000220202B08D1002AFF
:102A0C0002D0059B002B05D180239B006364012021
:102A1C0009B0F0BD2300403303931B78012BF7D092
:102A2C000122039B1A70FFF731FC80210290009069
:102A3C001923012209022000FFF7A6FD061EE6D18C
:102A4C0022233B7027001E3342373B70049B60648B
:102A5C0063626B469B8A60636385029B069A019353
:102A6C00109B290000932000079BFFF74FFE0028C6
:102A7C0002D0039B1E70CAE7628D354BFF2A58D9D2
:102A8C00FF222285009380235B04290020008026EE
:102A9C00FFF764FDB604029B002200930421109BF7
:102AAC002000FFF771FD0028B1D12368626A5B6AD0
:102ABC001370636A228D01336362638D013A013BAB
:102ACC009BB26385638D92B22285002B18D0002AAD
:102ADC0016D1029B802100932000109BFFF754FD20
:102AEC00002800D093E7638DFF2B2AD9FF23238581
:102AFC008023FF2200905B0429002000FFF72EFDAD
:102B0C00638D002BC7D1029A10992000FFF730FE7D
:102B1C00002800D07BE7202123680E4DD9615A682C
:102B2C002A405A60230040344133197038702070A9
:102B3C006EE7628D92B2228500938023D2B29B0401
:102B4C00A3E7628D330092B22285D2B20090D3E714
:102B5C000024008000E800FEF0B51D00002389B0C1
:102B6C000793030041330591049202931B780400F0
:102B7C000220202B56D123689A6980231B02134014
:102B8C0050D1210040310A78012A4BD001220A7021
:102B9C0024210298039201706364059BE1689B05F4
:102BAC0022689B0D01291FD133490B435360FFF75A
:102BBC006DFB060022680399936992695B091209FF
:102BCC000B400A40134312D0102723689A690096D1
:102BDC003A402B00002A27D120212000FFF7D4FCFB
:102BEC00002817D001201DE0A0218901DDE76B1C16
:102BFC00E0D0FFF74BFB801B854201D3002DD9D1D0
:102C0C002023029A403413706268134363600023DC
:102C1C002370E7E720232268D3612200403441323D
:102C2C001370207009B0F0BD002220212000FFF7A6
:102C3C00ABFC021ED6D123680498DF612027DF612C
:102C4C00079981420ED180215868C901014359600E
:102C5C00200000962B003900FFF796FC0028C1D10C
:102C6C002368DF61079B049A01330793079B9A4201
:102C7C0000D992E7C4E7C04600200002F0B504007A
:102C8C00413422780300D2B20220202A18D11D0030
:102C9C0040352E78012E13D01B68223020701E6810
:102CAC00233886431E601E68064F3E401E601E6819
:102CBC00314319601968084318600020227028708D
:102CCC00F0BDC046FFEFFFFFF0B5050041352A7897
:102CDC000300D2B20220202A17D11C0040342678DF
:102CEC00012E12D01B68223028701E6823388643B0
:102CFC001E601E68054F09023E4031431960196879
:102D0C000843186000202A702070F0BDFFF0FFFF10
:102D1C0013B50124064A116C21431164136C054A46
:102D2C0023400193019B13681843106013BDC046E8
:102D3C00001002400000014010B5104C10492368EF
:102D4C0002000B4003432360802300209B009A4227
:102D5C000CD10C4B0C49186806235843FDF7E8F9C5
:102D6C008022431CD2006069104000D110BD002BA2
:102D7C0001D0013BF7E70320F8E7C04600700040A4
:102D8C00FFF9FFFF0800002040420F00F0B50400DF
:102D9C0085B0002802D1012005B0F0BD0368DB0727
:102DAC0010D423689B075CD423681B0700D5C2E0B2
:102DBC0023685B0700D5F4E0E269002A00D073E1D8
:102DCC000020E9E73822AC4DAB681340EA68102BC1
:102DDC0009D1D243930708D12B689B03E1D56368D3
:102DEC00002BDED1D7E7082BF6D080226368520285
:102DFC00934211D12A6813432B60FFF747FA8026C0
:102E0C000700B6022B683342CBD1FFF73FFAC01B49
:102E1C006428F7D90320BFE7A021C9028B4208D14F
:102E2C0080232968DB020B432B602B681A432A6032
:102E3C00E3E72A6891490A402A602A6890490A40C7
:102E4C002A60002BD9D1FFF721FA80260700B602A1
:102E5C002B683342A5D0FFF719FAC01B6428F7D9A9
:102E6C00D8E73823844DAA681340EA68102B29D17F
:102E7C0003210A40022A27D12A68520503D5E268A9
:102E8C00002A00D187E7696862697E481202014016
:102E9C000A436A60002B0DD12B687B4A13402269D0
:102EAC0013432B602B68794A9B045B0FDA401300A9
:102EBC00774A1360774B1868FFF7A0F9002800D108
:102ECC0072E768E7002BD7D0E368002B20D02B6883
:102EDC006D4A802613402269F60013432B60802331
:102EEC002A685B0013432B60FFF7D0F907002B68AF
:102EFC00334207D06A68636962491B020A40134374
:102F0C006B6051E7FFF7C2F9C01B0228EFD981E7CC
:102F1C002B68614A802613402B60FFF7B7F9070036
:102F2C00F6002B68334200D13EE7FFF7AFF9C01B28
:102F3C000228F6D96EE738214F4B9A681D000A40DB
:102F4C00182A08D11B6E9B0700D431E7A369002B0C
:102F5C0000D02DE71FE7A2690123002A10D02A6EAA
:102F6C00022613432B66FFF791F907002B6E3342B1
:102F7C0000D01DE7FFF78AF9C01B0228F6D949E7F4
:102F8C002A6E02269A432A66FFF780F907002B6EF9
:102F9C00334200D10CE7FFF779F9C01B0228F6D9B0
:102FAC0038E73821344B9A681D000A40202A08D192
:102FBC00DB6D9B0700D4FFE6A368002B00D0FBE67B
:102FCC00E9E68022DB6B5205134200D1F6E00023C8
:102FDC008027324E009333687F003B4215D0A368A4
:102FEC00012B22D1EA6D1343EB65FFF74FF9022752
:102FFC000600EB6D3B4238D0009B012B00D0DBE68A
:10300C00EB6B274A1340EB63D6E633683B433360E4
:10301C00FFF73CF9019033683B42E0D1FFF736F9FA
:10302C00019BC01A0228F6D9F4E6EA6D052B05D1EE
:10303C00013B1343EB65EA6D0123D4E701218A437D
:10304C00EA65EA6D03318A43EA65002BCDD1FFF7BF
:10305C001DF902270600EB6D3B42CDD0FFF716F9A8
:10306C00104B801B9842F6D9D4E6FFF70FF90D4BA5
:10307C00801B9842BDD9CDE600100240FFFFFEFF39
:10308C00FFFFFBFFFF80FFFFFFC7FFFF0024F400E3
:10309C000800002004000020FFFEFFFF007000402D
:1030AC00FFFFFFEF881300003820494B99681D0083
:1030BC000140102954D01B6846490B402B60022A52
:1030CC0037D1FFF7E3F880260700B6042B683342AC
:1030DC0029D1616A236AEA680B433F490A401343CA
:1030EC00E26A1343226B1343626B1343A26A80247C
:1030FC0012021343EB6080232A685B0413432B609A
:10310C008023EA685B051343EB60FFF7BFF806000A
:10311C00A4042B68234200D052E6FFF7B7F8801BBB
:10312C000228F6D976E6FFF7B1F8C01B0228CDD9F4
:10313C0070E60322EB6880249343EB60EB68274A2C
:10314C00A4041340EB60FFF7A1F806002B682342A0
:10315C0000D135E6FFF79AF8801B0228F6D959E61C
:10316C00012A00D117E6D8680323226A0340934250
:10317C0000D010E67023626A0340934200D00AE646
:10318C00FE22A36AD20102401B029A4200D002E640
:10319C00F823E26A9B030340934200D0FBE5E02353
:1031AC00226B1B050340934200D0F4E5636B400F88
:1031BC004007C01A431E9841C0B2EDE5EB6B1343B8
:1031CC00EB63EB6B13400393039B012300E7C046B7
:1031DC0000100240FFFFFFFE8C80C111FFFFFEEECE
:1031EC0038231F4A70B591681400194208D1012187
:1031FC0013681C489B045B0F9940FCF799FF70BD4A
:10320C0091681940082925D091681940102915D1C9
:10321C00D368D168DB437F22E5684906490F2D0A44
:10322C00013115409B0707D10F48FCF781FFE1687E
:10323C006843490F0131E0E70A48F6E79168194005
:10324C00202909D0926800201340182BD7D1FA20DE
:10325C00C001D4E70448D2E780200002CFE7C04683
:10326C00001002400024F40000127A00F7B50500AB
:10327C000E00002801D10120FEBD07274A4C23680F
:10328C003B408B422AD329688B073BD4CB0748D4CD
:10329C00072723683B409E420AD22368BB43334333
:1032AC002360FEF7F3FF019023683B409E426BD1F5
:1032BC002B683E4C5B076FD4FFF792FFA3683C4A28
:1032CC001B051B0F9B009B581F221340D840394BEA
:1032DC001860394B1868FEF791FFCDE72368BB43A4
:1032EC000B432360FEF7D2FF019023683B409E42C4
:1032FC00C9D0FEF7CBFF019BC01A304B9842F4D9D2
:10330C000320B9E7294A4B0704D5E0239068DB0179
:10331C000343936093682A480340A868034393606F
:10332C00B4E76A68214F012A19D13B689B03A2D5E7
:10333C000721BB688B431343BB60FEF7A7FF0190CB
:10334C003823BA681A406B68DB009A42A0D0FEF7AB
:10335C009DFF019BC01A194B9842F1D9D0E7022A64
:10336C0003D13B689B01E3D485E7002A03D13B687A
:10337C005B05DDD47FE70223032A03D1396E1942A2
:10338C00D6D178E7F96DFAE7FEF780FF019BC01AFA
:10339C000A4B984288D9B3E7A3680A4A1340EA68F3
:1033AC001343A36088E7C04600200240001002408F
:1033BC007072000808000020040000208813000030
:1033CC00FFF0FFFFFF8FFFFF064B074A9B685B0474
:1033DC005B0F9B009B581F221340044A1068D84077
:1033EC007047C04600100240B07200080800002070
:1033FC00F0B505002B6885B000209B0350D58022CA
:10340C006F4C5205E36B0090134208D1E36B1343EE
:10341C00E363E36B13400393039B01230093802727
:10342C00684E7F0033683B433360FEF72FFF0190FB
:10343C0033683B4226D0C023E26D9B0013400FD073
:10344C002A6B93420CD0E26D5F4BE16D13408022EE
:10345C0052020A43E265E26D5C490A40E265E365AB
:10346C00DB0707D5FEF712FF02270600E36D3B4290
:10347C0000D19DE0E36D544A002013402A6B1343A6
:10348C00E36506E0FEF702FF019BC01A0228CFD9C4
:10349C000320009B012B03D1E36B4D4A1340E363E4
:1034AC002B68DA0706D5032445494A6DA2436C689C
:1034BC0022434A659A0706D50C2441494A6DA2431A
:1034CC00AC6822434A659A0606D53D49414C4A6D83
:1034DC002240EC6822434A659A0506D538493E4C91
:1034EC004A6D2240AC6922434A655A0506D53449D7
:1034FC003A4C4A6D2240EC6922434A655A0606D57D
:10350C002F49374C4A6D22402C6922434A655A0494
:10351C000FD52B492C6A4A6D9200920822434A65BA
:10352C008022D205944204D18022CC6852022243DC
:10353C00CA601A0306D5402421494A6DA2436C6A1D
:10354C0022434A659A020FD51D49264E4A6DAC6A34
:10355C00324022434A658022D203944204D1802215
:10356C00CC6852042243CA605A020DD5144C1E4E2C
:10357C00616DEA6A314011436165802149048A42D8
:10358C0002D1E1680A43E2601B050FD50C49174CC8
:10359C004B6D6A69234013434B658023DB019A42D0
:1035AC0004D18023CA685B021343CB6005B0F0BD25
:1035BC00FEF76CFE0E4B801B984200D856E767E76F
:1035CC000010024000700040FFFCFFFFFFFFFEFFF9
:1035DC00FFFFFFEFFFF3FFFFFFFFF3FFFFFFCFFF47
:1035EC00FFCFFFFFFFFFBFFFFFFFFFFEFF3FFFFF10
:1035FC0088130000036807491A680A401A609A6821
:10360C0005490A409A60030020220833DA67002338
:10361C00C3667047DFFEFFFFFEFFFFEF704770478A
:10362C00F7B502680400D369116890681D070DD1C5
:10363C0020252B4200D180E0294202D1C50000D4C4
:10364C007BE0E36E2000002B6DD16DE0554D054005
:10365C00009504D12135FF35294200D16DE02500BC
:10366C0001268835334205D0CF0503D516622F6865
:10367C003E432E60022633420CD0C7070AD52700E2
:10368C00166288373E680197B446042667463E4367
:10369C00019F3E60042633420CD0C7070AD5270091
:1036AC00166288373E680197B446022667463E4349
:1036BC00019F3E601E0709D58E0602D4009E002E87
:1036CC0004D0082616622A6816432E602A68002A3F
:1036DC002AD02022134208D0114201D1C30004D5B4
:1036EC00E36E002B01D02000984723682E689B685E
:1036FC0020005B0602D408231E401AD0FFF77AFF85
:10370C00402123689A680A420FD09A68A06F8A43B6
:10371C009A60002809D0244B8363FEF725FE00280D
:10372C0002D0A06F836B9847F7BD2000FFF777FF9F
:10373C00FAE7FFF774FF2E60F6E780256D032B4246
:10374C0006D0460204D51562200000F001FEEBE71E
:10375C0080252B4205D0294201D1000201D5236FCF
:10376C0070E7402003420DD001420BD01368834315
:10377C0013602022231DDA67002320002367FFF744
:10378C004DFFD1E71A0205D54A0003D5200000F001
:10379C00E1FDC9E7DB01C7D50029C5DA200000F03F
:1037AC00D8FDC1E701000010B9370008806A00237A
:1037BC00020010B55E321380083A1380FFF72FFF1A
:1037CC0010BD0000F8B504000268C1698368006987
:1037DC00656E0343606903430B4310682B43A44D90
:1037EC002840034313605368A248A34D0340E0688C
:1037FC0003435360A069AA4201D0236A184393681B
:10380C009E4E33400F2603439360D06A636AB043E5
:10381C001843D0629A48824217D10320994A526DBC
:10382C0002409948805C80221202914200D089E2C9
:10383C0008282BD8FCF772FC7D032A001A022A00F8
:10384C004E022A002A002A0051029048824205D1D9
:10385C000C208C4A526D02408D48E3E78D48824221
:10386C0000D161E38C48824200D15DE31020AA4272
:10387C00D9D1C0218020834A0901526DC0000A4071
:10388C00824200D19CE00DD8002A4ED001222100AA
:10389C0001236A310B8002390B8000231000E36690
:1038AC002367F8BD8020000182426ED08A42EDD1A0
:1038BC00002B00D1C7E0012B00D1C7E0022B00D1B7
:1038CC00C8E0032B00D1C8E0042B00D1C7E0052BC6
:1038DC0000D1C7E0062B00D1C6E08021072B00D118
:1038EC00C4E0082B00D1F7E0092B00D1F6E00A2B3D
:1038FC0000D1F5E00B2B00D0A6E0033B032062685F
:10390C0050438842C2D810038842BFD3082B00D939
:10391C00A9E11800FCF702FCE600A7013801A70199
:10392C006E01A701A701A7017101FFF74DFD636AA5
:10393C000121002B21D04918012B1ED00231022B62
:10394C001BD00231032B18D00231042B15D00231BD
:10395C00052B12D00231062B0FD00431072B0CD0C3
:10396C001031082B09D02031092B06D040310A2BFD
:10397C0003D07F390B2B00D1FF31FCF7D9FB00238F
:10398C00010000229142B9D181E7002B59D0012BC3
:10399C0043D0022B43D0032B43D0042B43D0052B15
:1039AC0043D0062B43D0072B43D0082B43D0092BF5
:1039BC0043D00A2B43D00B2B43D1384902239DE72C
:1039CC00FFF70EFC636A0121002B21D04918012B53
:1039DC001ED00231022B1BD00231032B18D0023126
:1039EC00042B15D00231052B12D00231062B0FD02F
:1039FC000431072B0CD01031082B09D02031092BA6
:103A0C0006D040310A2B03D07F390B2B00D1FF316C
:103A1C00FCF78EFB04230100B3E72149CEE72149D3
:103A2C006CE72149CAE72149C8E72149C6E7214982
:103A3C00C4E72149C2E72149C0E72149BEE7214932
:103A4C00BCE72149BAE78021090201E08021C901C4
:103A5C00082353E780218901FAE71C49F8E7802104
:103A6C004901F5E71A49F3E71A49F1E70901EFE7CC
:103A7C00F369FFCFFFCFFFFF00800040FFF4FF1181
:103A8C000038014000100240F07100080044004072
:103A9C00F471000800480040004C004024F4000081
:103AAC0000127A0000093D00AAB0280080841E0094
:103ABC00006A18005558140040420F0020A107005E
:103ACC0090D0030048E801000024F40055150000D4
:103ADC00CC0C0000AA0A0000C9000FE78900B7E768
:103AEC004900B5E7FFF770FC616A01220023002949
:103AFC002ED00222002301292AD0042200230229DD
:103B0C0026D006220023032922D0082200230429D0
:103B1C001ED00A22002305291AD00C2200230629C4
:103B2C0016D010220023072912D0202200230829A6
:103B3C000ED04022002309290AD0802200230A2912
:103B4C0006D0012200230B2902D18022002352002F
:103B5C000021FCF7A1FC00276568060E0B0233431D
:103B6C0002026E0892197B41100019002A003B00DA
:103B7C00FCF792FC3A00964B9649C3188B4200D93D
:103B8C0084E62368D86082E6636A002B30D0012B70
:103B9C001AD0022B1AD0032B1AD0042B1AD0052BB7
:103BAC001AD0062B1AD0072B1AD0082B1AD0092B97
:103BBC001AD00A2B1AD00B2B1AD1874800210027B8
:103BCC00560880197941D2E78448F7E78448F5E72D
:103BDC008448F3E78448F1E78448EFE78448EDE74D
:103BEC008448EBE78448E9E78448E7E78448E5E75D
:103BFC008448E3E7FFF7F4FA76E7636A002B18D002
:103C0C00012B19D0022B1AD0032B1BD0042B1BD049
:103C1C00052B1CD0062B1CD08020072B1BD0082B6F
:103C2C001BD0092B1BD00A2B1BD00B2B02D1000253
:103C3C00C4E780200004C1E78020C003BEE78020D9
:103C4C008003BBE77048B9E780204003B6E76F48B4
:103C5C00B4E76F48B2E70003B0E7C002AEE78002FA
:103C6C00ACE74002AAE70122002084E7002B2FD00A
:103C7C00012B19D0022B19D0032B19D0042B19D0DE
:103C8C00052B19D0062B19D0072B19D0082B19D0BE
:103C9C00092B19D00A2B19D00B2B19D15D4863684D
:103CAC0061685B08181873E14B48F8E75A48F6E767
:103CBC005A48F4E75A48F2E75A48F0E75A48EEE710
:103CCC005A48ECE75A48EAE75A48E8E75A48E6E720
:103CDC004B48E4E7FFF784FA2DE1002B18D0012BB9
:103CEC0019D0022B1AD0032B1BD0042B1BD0052B65
:103CFC001CD0062B1CD08020072B1BD0082B1BD0D4
:103D0C00092B1BD00A2B1BD00B2B02D14000C6E772
:103D1C0080204002C3E780200002C0E78020C00161
:103D2C00BDE74648BBE780208001B8E74448B6E7CA
:103D3C004448B4E74001B2E70001B0E7C000AEE789
:103D4C008000ACE7082800D9EBE0FCF7DDF905EAC8
:103D5C007FEAB3EAEAEAB600FFF736FB636A0121B1
:103D6C00002B21D04918012B1ED00231022B1BD065
:103D7C000231032B18D00231042B15D00231052B44
:103D8C0012D00231062B0FD00431072B0CD010317E
:103D9C00082B09D02031092B06D040310A2B03D037
:103DAC007F390B2B00D1FF316568FCF7C1F9290075
:103DBC006B08C018FCF7BCF9002283B2190022482A
:103DCC001039814200D961E52168CB605FE5C046BE
:103DDC0000FDFFFFFFFC0F000024F4000000127A2E
:103DEC000000093D00AAB0280080841E00006A185B
:103DFC00005558140040420F0020A1070090D0033A
:103E0C000048E801000024F40055150000CC0C001B
:103E1C0000AA0A0048E8010000127A00546151001F
:103E2C0000093D0000D43000AAB0280080841E0098
:103E3C0040420F0020A1070090D00300AA2A0000E6
:103E4C009819000054150000EFFF0000002B2FD034
:103E5C00012B19D0022B19D0032B19D0042B19D0FC
:103E6C00052B19D0062B19D0072B19D0082B19D0DC
:103E7C00092B19D00A2B19D00B2B19D14E4863687A
:103E8C0061685B08181895E74C48F8E74C48F6E76A
:103E9C004C48F4E74C48F2E74C48F0E74C48EEE766
:103EAC004C48ECE74C48EAE74C48E8E74C48E6E776
:103EBC004C48E4E7FFF794F950E7002B18D0012B9E
:103ECC0018D0022B19D0032B1AD0042B1AD0052B87
:103EDC001BD0062B1BD08020072B1AD0082B1AD0F6
:103EEC00092B1AD00A2B1AD00B2BC8D00002C6E70C
:103EFC008020FBE78020C001C1E780208001BEE765
:103F0C003948BCE780204001B9E73848B7E7384862
:103F1C00B5E70001B3E7C000B1E78000AFE74000B0
:103F2C00ADE70122002349E780231B02994200D010
:103F3C0012E7FFF749FA636A0121002B21D04918D7
:103F4C00012B1ED00231022B1BD00231032B18D0B7
:103F5C000231042B15D00231052B12D00231062B65
:103F6C000FD00431072B0CD01031082B09D0203185
:103F7C00092B06D040310A2B03D07F390B2B00D1F3
:103F8C00FF31FCF7D5F86568400029006B08C018B4
:103F9C00FCF7CEF880B20300164A103B934200D9CE
:103FAC0074E40F2302009A43130000072268400FA9
:103FBC001843D06000226AE424F4000000127A0056
:103FCC0000093D00AAB0280080841E00006A180079
:103FDC005558140040420F0020A1070090D0030058
:103FEC0048E801000024F40055150000CC0C00003A
:103FFC00AA0A0000EFFF0000836A30B5DA0706D585
:10400C000168284C4A682240C46A22434A609A07D5
:10401C0006D50168244C4A682240046B22434A604E
:10402C005A0706D50168214C4A682240446B22434A
:10403C004A601A0706D501681D4C4A682240846BF9
:10404C0022434A60DA0606D501681A4C8A68224077
:10405C00C46B22438A609A0606D50168164C8A689E
:10406C002240046C22438A605A0610D50168134D15
:10407C004A68446C2A4022434A608022520394428C
:10408C0005D14A680E4C2240846C22434A601B06C0
:10409C0006D502680B4953680B40C16C0B43536047
:1040AC0030BDC046FFFFFDFFFFFFFEFFFFFFFBFF24
:1040BC00FF7FFFFFFFEFFFFFFFDFFFFFFFFFEFFFC4
:1040CC00FFFF9FFFFFFFF7FFF8B504000E00150080
:1040DC001F002268D36933409B1B59424B41AB42B2
:1040EC0001D000201EE0069B0133F3D0FEF7CEF882
:1040FC00069BC01B834201D3002BEAD1220008CAC5
:10410C0009481968014019609968A330FF30814350
:10411C0099602023D36722000832D36700237C34B4
:10412C0023700230F8BDC0465FFEFFFFF0B5071DDF
:10413C0087B00593FB6F04000D0016000220202BA6
:10414C004AD10138002947D0002A45D08023A268E3
:10415C005B019A4204D12369002B01D101423BD16E
:10416C0023007C331A780220012A35D001221A70E0
:10417C000022DA602123FB67FEF788F82300543312
:10418C001E8002331E8003938023A26804905B017F
:10419C0000269A4204D12369B34201D12E001D009E
:1041AC00230056331A88059B92B20093049B002A75
:1041BC000AD140212000FFF787FF00280BD12023D4
:1041CC007C34FB67207007E0002280212000FFF781
:1041DC007BFF002802D0032007B0F0BD2268002D21
:1041EC000BD133880236DB05DB0D9362039B039AFC
:1041FC001B88013B9BB21380D2E72B78013593626D
:10420C00F4E70000030073B50026040088331E6039
:10421C00FEF73CF8236805001B681B0717D42368BE
:10422C001B685B070AD580210F4B00220093C90342
:10423C002B002000FFF748FF002813D1202300207B
:10424C00221DD3677C340432D36720700BE08021AD
:10425C00054B32000093890303002000FFF734FF65
:10426C000028DCD0032076BDFFFFFF0170B5041ED3
:10427C0001D1012070BD051DEB6F002B04D1020094
:10428C007C32137000F066FA242301212268EB675C
:10429C00136820008B431360FFF794FA0128E8D0D1
:1042AC00A36A002B02D02000FFF7A6FE2368084962
:1042BC005A6820000A402A215A609A688A439A60F8
:1042CC00012219680A431A60FFF79CFFD2E7C04627
:1042DC00FFB7FFFF0123F0B587B002AA137053702C
:1042EC009370032202A9CA7002250022072604AC8F
:1042FC008A71CA710E714B71A570042107000500FB
:10430C00083222702271426E6170E1706371A37188
:10431C00E3716A376835002A03D13B802B8007B0E4
:10432C00F0BD03689A689B6801925B0F02AAD05C8F
:10433C00E15CC000FBF786FF019B38805B0E1E40E2
:10434C0002AB985DA15DC000FBF77CFF2880E6E71F
:10435C00704770477047000070B504007C342278B9
:10436C000223012A10D001260268051D2233EB67B7
:10437C0011681368B3431360044B19400023436660
:10438C0011602022EA672370180070BDFFFFFFDF69
:10439C00F8B505007C352B7804000220012B17D0D2
:1043AC00242322680138261D2870F36717681368C8
:1043BC008343136093682000DB00DB081943916092
:1043CC00FFF788FF236800201F602023F367287005
:1043DC00F8BD0000F8B505007C352B7804000220F0
:1043EC00012B17D024230138261D2870F36723686E
:1043FC001F681A6882431A609A6807480240114382
:10440C0099602000FFF766FF236800201F602023BF
:10441C00F3672870F8BDC046FFFFFFF110B5A0B0E0
:10442C003822002112A800F06BFA1022002101A8FA
:10443C0000F066FA3422002105A800F061FA802011
:10444C008000FEF779FC022300241293FE331593AF
:10445C0012A8C03B179316941994FEF797FC0723E8
:10446C00210001A80193029403940494FEF7FEFE2C
:10447C00422305A8059307940994FEF7B9FF20B0D1
:10448C0010BD0000F0B58FB004AFFDF7DFFEFFF7F5
:10449C00C5FF08200C23381814220021C01800F086
:1044AC002FFA0121A020664BC0055A6B00260A4347
:1044BC005A635A6B0A40FA60FA685A6B49180A43F5
:1044CC005A635B6B00220B403B6101393B69FEF781
:1044DC0031F801230822A020BA187B61BB610B3391
:1044EC00D118C005FE613E62FDF77CFF554D564B61
:1044FC0028002B600A23FF336B60093BFF3BEB600A
:10450C00AE602E616E61AE61EE612E62FEF758F9FF
:10451C0031002800FEF7B2FB31002800FEF7D4FB77
:10452C0080204003FEF7F4FB484C494B20002360ED
:10453C00E1235B0263600C23A6606361E660266185
:10454C00A661E66126626662A662FFF78FFE310005
:10455C002000FFF71DFF31002000FFF73BFF20007C
:10456C00FFF7FAFE3B4800F0BDFEC823022266218D
:10457C002800FEF7F1FAB04257D0374800F0B2FEEF
:10458C007E6001230A251E007B68002B48D06B46F9
:10459C00D0223B60314BD2009D4401929022294C99
:1045AC0004AB009366210295022392012000FEF7D2
:1045BC0015FA011E02D02A4800F01AFE08210C221E
:1045CC00022379188A180193009266212000029523
:1045DC00244AFEF703FA3C7D7B7D24021C43E10454
:1045EC00C90F214800F004FE012E24D11F4B1C40A2
:1045FC00082123120C223B75631E9C41022379185F
:10460C008A187C756621019300920295154A0D4813
:10461C00FEF72CF9012332005A403B6816009D46E8
:10462C00FA204000FDF738FEAEE7114800F05AFEC4
:10463C0001237B60A5E780235B011C43D8E7C046C0
:10464C0000100240080200200054004054020020D8
:10465C0000440040017200081F72000880F9FFFF3F
:10466C004A7200080D8000005F720008FFEFFFFF28
:10467C003872000813B5040001A908700A2301223E
:10468C000248FFF753FD200016BDC046540200201F
:10469C0070B50E0015000C00A31B9D4201DC280018
:1046AC0070BD2078FFF7E6FF0134F5E701200D4BD4
:1046BC0082B0196C0143196480211A6C49050240BF
:1046CC000092009ADA6B0A43DA63DB6B064A0B4002
:1046DC000193019BC0231168DB000B43136002B0F4
:1046EC007047C046001002400000014010B50400A5
:1046FC0088B01422002103A800F002F9124B2268A2
:10470C009A421ED10221114C1148626B0A4362631A
:10471C00636B0B400193019BC0239B0003931223FB
:10472C000493113B059303A905330793FDF75AFE38
:10473C008021E26B89030A43E263E36B0B40029333
:10474C00029B08B010BDC04600540040001002404F
:10475C000004005010B5040088B01422002103A8F6
:10476C0000F0CEF8144B22689A4223D18020134BD0
:10477C008002D96B0143D963DA6B02400192019A32
:10478C000122596BA020114359635B6B03A91340A1
:10479C000293029B0C23C00503930A3B04930792DC
:1047AC00FDF720FE00221C201100FDF787FD1C20C8
:1047BC00FDF7B4FD08B010BD0044004000100240ED
:1047CC007047FEE77047704710B5FDF753FD10BDFD
:1047DC0010B50248FEF724FF10BDC046540200205D
:1047EC0070B50E0015000C00A31B9D4201DC2800C7
:1047FC0070BD00E000BF20700134F5E70A4B10B526
:10480C0019680200002901D1084919606946186825
:10481C0082188A4206D900F049F80C230360012063
:10482C00404210BD1A60FCE7F8010020E4020020B1
:10483C0001204042704780239B0100204B60704751
:10484C0001207047002070478022024B12059A60AD
:10485C007047C04600ED00E00D488546002103E09E
:10486C000C4B5B58435004310B480C4B42189A428A
:10487C00F6D30B4A02E0002313600432094B9A4230
:10488C00F9D3FFF7E1FF00F017F8FFF7FBFDFEE7A8
:10489C0000900020A075000800000020DC01002022
:1048AC00DC010020E4020020FEE70000014B186848
:1048BC007047C0460C00002070B500260C4D0D4C06
:1048CC00641BA410A64209D1002602F03DFC0A4D3F
:1048DC000A4C641BA410A64205D170BDB300EB5862
:1048EC0098470136EEE7B300EB5898470136F2E7EC
:1048FC009875000898750008987500089C75000854
:10490C0003008218934200D1704719700133F9E704
:10491C00F0B58BB014001D1E129953DA80242406B6
:10492C001B191D0014002D230B702023149E032231
:10493C009E43462E07D03300453B59424B411099BC
:10494C00013ACB18109309AB049308AB0393139B58
:10495C0000920293109B220001932B0000F01CFE8E
:10496C000700472E02D1119BDB0724D5109BFB18A7
:10497C000793462E14D13B78302B0CD10022002308
:10498C0020002900FBF75AFD002804D10123109ABE
:10499C009B1A139A1360139B079A1B68D3180793DF
:1049AC000022002320002900FBF748FD30220028BC
:1049BC000DD0079B09933800099B159ADB1B1360DC
:1049CC000BB0F0BD0023AFE7591C09911A70099B7D
:1049DC0007999942F8D8EEE7F0B52B2385B007007C
:1049EC000C000270861C002901DA2D234C427B70CE
:1049FC00092C23DD02ABDD1D6B1E20000A21019367
:104A0C00FBF706FD6B1E3031197020000A21FBF7F5
:104A1C0019FC040009280ADC023D30342C7002AB6E
:104A2C0007333000AB4204D8C01B05B0F0BD019D6C
:104A3C00E2E72B78013533700136F0E73023E418C8
:104A4C003370B01C7470EFE7F0B595B00C000A929F
:104A5C000B931A9D099001F015FD036818000D9336
:104A6C00FBF74AFB0023129323680E900C930C99CE
:104A7C00277E2B680722C90547D59B1893431A003C
:104A8C0008322A601A685B68A264E3640122E56C50
:104A9C00A66C6B005B080F935242A74B30000F992A
:104AAC00FDF7B4FA002800D006E20122A24B5242D4
:104ABC0030000F99FBF7D2FC002800D0FCE100225B
:104ACC00002330002900FBF7BFFC002803D0230093
:104ADC002D2243331A70994D472F00D8984D03233C
:104AEC0000260C9A236101339A4322600B9B13AA74
:104AFC00009321000A9B099800F0F2F9431C00D0A6
:104B0C009CE00120404215B0F0BD0733B6E780238E
:104B1C006268DB00511C45D1073262600C9A00219F
:104B2C00134312AA059211AA039223222360069121
:104B3C00019308A9636852180292009332002B006B
:104B4C0004970998FFF7E4FE20233A0005009A43E6
:104B5C00472A07D1119BDA1C02DB626893425BDDAA
:104B6C00023FFFB21199652F3BD8200001393A0062
:104B7C0050301191FFF730FF129A06008318236111
:104B8C00012A02DC2268D20701D5013323612323D9
:104B9C0008AA9B181B78002BA8D023002D22433386
:104BAC001A70A3E7672F01D0472FB7D1002A16D070
:104BBC000C9908A80B430021069112A9059111A983
:104BCC000391232109182360019300922B00049771
:104BDC00029132000998FFF79BFE0500BAE701220B
:104BEC009BE7662F19D1636800290CDD2161002B2E
:104BFC0002D12268D20702D501335B182361119BC5
:104C0C000026A365C3E7002B03D1012221681142C2
:104C1C0000D09A1C2261F2E76727119B12988342FD
:104C2C0005DB22682361D207E9D50133E6E70122CF
:104C3C00002B01DC9218D21A1218EBE722685305EC
:104C4C0008D423692A000A9909980B9DA847431C8C
:104C5C0029D156E7652F00D8DCE0A06CE16C00226E
:104C6C000023FBF7EBFB002835D00123354A0A99CA
:104C7C0009980B9DA847431C00D142E7119B129A3F
:104C8C00934202DB2368DB070DD50B9D0E9B0D9A1F
:104C9C000A990998A8470025431C00D131E7129BBB
:104CAC00013B9D420BDB236800259B0700D5FDE0F3
:104CBC00139BE068984200DB25E7180023E72200ED
:104CCC0001231A320A9909980B9EB047431C00D154
:104CDC0017E70135E3E7119B002B35DC0123194A5B
:104CEC000A9909980B9EB047431C00D109E7119B08
:104CFC00002B05D1129B002B02D12368DB07D2D5E8
:104D0C000B9E0E9B0D9A0A990998B0470026431CDE
:104D1C0000D1F6E6119B5B429E4201DB129B91E7B0
:104D2C00220001231A320A9909980B9FB847431C99
:104D3C0000D1E6E60136EDE7FFFFEF7FD872000801
:104D4C00D4720008E4720008A36D129E9E4200DD2E
:104D5C001E00002E35DC00230C93F343DB170F935E
:104D6C000F9BA76D0C9A3340FB1A9A4232DB119BB6
:104D7C00129A93423CDB2368DB0739D4129E119ABA
:104D8C00F31BB61A9E4200DD1E00002E39DCF743E1
:104D9C000025FB170C93119A129B0C999B1A32004D
:104DAC000A409B1A9D4200DB7DE7220001231A3248
:104DBC000A9909980B9FB847431C00D1A1E601350D
:104DCC00E9E733002A000A9909980B9FB847431C5E
:104DDC00C1D196E6220001231A320A9909980B9F39
:104DEC00B847431C00D18CE60C9B01330C93B7E7FE
:104DFC000E9B0D9A0A9909980B9EB047431CBDD186
:104E0C007FE6EA1933000A9909980B9DA847431CC1
:104E1C00BDD176E6129B012B02DC01231A4238D05D
:104E2C0001232A000A9909980B9FB847431C00D10B
:104E3C0067E60E9B0D9A0A9909980B9FB847431C7D
:104E4C0000D15EE6A06CE16C00220023FBF7F6FAC1
:104E5C00002808D00025129B013B9D420DDB22004F
:104E6C0033005032EFE6129B6A1C013B0A990998F9
:104E7C000B9DA847431CF2D143E6220001231A32B2
:104E8C000A9909980B9FB847431C00D139E60135A4
:104E9C00E1E72A00EAE72200012319320A9909986E
:104EAC000B9EB047431C00D12BE60135E368139AE7
:104EBC009B1A9D42EFDBFBE632002B0030002900F1
:104ECC00FDF7A4F8002800D121E6034D472F00D9A7
:104EDC0005E6024D03E6C046E0720008DC720008ED
:104EEC00F7B5150001938A680B6900900C0093428A
:104EFC0000DA130022002B6043321278002A01D012
:104F0C0001332B6023689B0602D52B6802332B6080
:104F1C00062723681F4027D0230043331B785A1ED3
:104F2C0093412268920630D42200019943320098B2
:104F3C00089EB047431C25D0062320682A68E168E8
:104F4C0003400025042B03D18D1AEB43DB171D40C6
:104F5C00A3682269934201DD9B1AED180027BD421C
:104F6C0020D1002010E00137E3682A689B1A9F4289
:104F7C00D2DA22000123193201990098089EB04719
:104F8C00431CF0D101204042FEBD3020E1184331DA
:104F9C00087021005A1C45310978A218433202339B
:104FAC001170C1E7220001231A3201990098089E62
:104FBC00B047431CE6D00137D1E70000F0B58BB009
:104FCC0006920A0043320793059004920A7E0C0065
:104FDC00109B6E2A00D18FE017D8632A2CD008D8EA
:104FEC00002A00D199E0582A54D02600423632705B
:104FFC0029E0642A01D0692AF7D121681A680806C9
:10500C0023D5111D1960156825E0732A00D188E09D
:10501C0008D86F2A29D0702AE7D1202209680A43C0
:10502C00226003E0752A20D0782ADED12200782174
:10503C00453211706C4A30E00E001A684236111D70
:10504C00196013683370012379E04906D9D5111D15
:10505C0019600023D55E002D03DA2D23049A6D42CE
:10506C001370624B0A2703932FE02068196805061A
:10507C0003D5081D18600D6805E04006F9D50D68CC
:10508C00081D1860ADB2594B082703936F2A18D02E
:10509C000A2716E045310A70544A03921A682168AF
:1050AC00101D18601568080622D5CB0702D52023E1
:1050BC00194321601027002D03D1202322689A4325
:1050CC0022602300002243331A706368A360002B14
:1050DC005CDB0422216891432160002D58D1049E91
:1050EC00002B64D02600039B42361B7833705EE0A5
:1050FC004806DAD5ADB2D8E709681A68080605D5AE
:10510C00111D1960136862691A6006E04906F7D52B
:10511C00111D19601368A28A1A800023049E236152
:10512C0054E01A68111D196016680021626830007D
:10513C0001F02AFA002801D0801B606063682361AB
:10514C000023049A137041E02369320006990598F4
:10515C00079DA847431C43D0236800259B070FD409
:10516C00099BE06898423DDA18003BE022000123DD
:10517C00193206990598079EB047431C30D001356B
:10518C00E368099A9B1A9D42F0DBE9E7002DA9D050
:10519C00049E28003900FBF751F8039B013E5B5C31
:1051AC00280033703900FAF7C3FF051EF1D1082F20
:1051BC0009D12368DB0706D563682269934202DCB8
:1051CC003023013E3370049B9B1B2361079B09AA70
:1051DC0000932100069B0598FFF782FE431CB3D178
:1051EC00012040420BB0F0BDF7720008E6720008D7
:1051FC000FB40B4B13B51C68002C05D0A369002B06
:10520C0002D1200001F0A8F805AB049AA168200097
:10521C00019301F08DFD16BC08BC04B01847C046C4
:10522C000C00002070B505000E00002804D0836926
:10523C00002B01D101F090F8AB69AC68002B02D1C6
:10524C00280001F089F8244B9C420FD16C68A3898B
:10525C001B0702D52369002B20D12100280000F068
:10526C00A1F800281AD00120404270BD1B4B9C4273
:10527C0001D1AC68EBE71A4B9C42E8D1EC68E6E74D
:10528C00013B0136A360002B04DAA269934216DBC2
:10529C000A2914D023685A1C226019703178A3682B
:1052AC000029EDD1013BA360002B0FDA22000A315B
:1052BC00280000F021F8431CD5D00A20D5E72200A5
:1052CC00280000F019F8431CE8D1CCE70A20236829
:1052DC005A1C22601870C8E738730008587300080D
:1052EC001873000810B5034B01001868FFF79AFFFC
:1052FC0010BDC0460C000020F8B505000E001400CF
:10530C00002804D08369002B01D101F025F8224B31
:10531C009C422DD16C68A369A360A3891B0731D56E
:10532C002369002B2ED023682269F7B2981A63697F
:10533C00F6B2984205DB2100280000F09FFF002800
:10534C0026D1A3680130013BA36023685A1C22605C
:10535C001F706369984204D0A389DB071AD50A2E03
:10536C0018D12100280000F089FF002812D00FE08E
:10537C000A4B9C4201D1AC68CDE7094B9C42CAD187
:10538C00EC68C8E72100280000F00CF80028CAD00F
:10539C00012676423000F8BD3873000858730008B7
:1053AC0018730008364B70B51D6806000C00002DF4
:1053BC0005D0AB69002B02D1280000F0CDFF314B9A
:1053CC009C420FD16C680C23E25E93B219072DD46A
:1053DC00D90611D409230120336037331343A38139
:1053EC00404270BD284B9C4201D1AC68EBE7274B87
:1053FC009C42E8D1EC68E6E75B0713D5616B0029AA
:10540C0008D023004433994202D0300001F0C0FB95
:10541C00002363632422A3899343A3810023636045
:10542C00236923600823A2891343A3812369002BDA
:10543C000BD1A0218022A389890092000B409342BA
:10544C0003D02100300001F051F80123A289134050
:10545C0011D00023A36063695B42A3610020236920
:10546C008342BED10C23E25E1306BAD5402313430C
:10547C00A3810138B5E7920700D46369A360EDE717
:10548C000C000020387300085873000818730008CB
:10549C00F0B503690C6989B00700059100269C42A0
:1054AC006DDC0B00013C1433A50003935B190493D2
:1054BC000300143302935D19049B28681B68591C64
:1054CC000193FAF735FE0190B0422DD0039B029860
:1054DC009C460696624608CA9446019A99B2514374
:1054EC001B0C534389190A0C9B18079302881E0C3A
:1054FC00069B89B2D2180368521A190C6B469B8B07
:10550C00CB1A11145B18191492B21B041A43049B86
:10551C00069104C06345DDD22B68002B04D1029B9D
:10552C00043DAB422ED33C610599380001F051FA91
:10553C00002823DB0025019B02980133039901937A
:10554C0008C9028855199AB2AA1A05681B0C2D0CA9
:10555C00EB1A15145B191D1492B21B04134308C0EB
:10556C00049B8B42ECD2029AA300D3181A68002A2F
:10557C0004D1029A043B9A4209D33C61019E30004B
:10558C0009B0F0BD2B68002BCDD1013CC7E71A68E0
:10559C00002AF2D1013CECE7F0B516001F00446A7A
:1055AC009DB00490259D06960797002C08D11020DD
:1055BC0000F0E0FF049B5862446084600460C460A7
:1055CC00049B5B6A196800290BD05A68012393402D
:1055DC004A608B60049801F023F80022049B5B6AFC
:1055EC001A60079B002B1FDA01232B607B005B08E2
:1055FC000793079CB74B220019931A409A4216D175
:10560C00B54B249A1360069B002B03D1240301D1C4
:10561C0000F091FDB14B269A0A93B14B002A01D0B0
:10562C0000F08FFD00F08FFD00232B60E1E7069E5C
:10563C00079F0022002330003900FAF7FFFE051EF9
:10564C000ED00123249A1360A64B269A0A93002AA3
:10565C0001D100F078FDA44A26990A6000F073FD90
:10566C001AAB01931BAB009332003B00049801F082
:10567C002DFA630005905B0D00D17FE03A039B4C43
:10568C00120B144321009A4A300018959E180022E0
:10569C00984BFCF7A5F9984A984BFBF721FF984AD1
:1056AC00984BFAF7D9FF040030000D00FCF702FD0F
:1056BC00954A964BFBF714FF02000B0020002900C3
:1056CC00FAF7CAFF04000D00FCF7C0FC002203909F
:1056DC00002320002900FAF7B7FE00280ED003980B
:1056EC00FCF7E8FC0B00020029002000FAF7A6FEEC
:1056FC00030058425841039B1B1A03930123169332
:10570C00039B162B0FD88249DB00C918086849681F
:10571C00069A079BFAF7ACFE00284BD0039B013B83
:10572C000393002316931A9B9E1B00230B933300A9
:10573C00013B0C9304D501239B1B0B9300230C936F
:10574C00039B002B38DB039A0C9B944663440C930D
:10575C0000230F920893229B0125092B00D991E07D
:10576C00052B02DD0025043B2293229B981E032867
:10577C0000D991E0FAF7C8FC828429761A9B1B9A0F
:10578C009E18644BF218202A0FDD634B0698F31811
:10579C00D84040239B1A9C402043FCF7CDFC0123AE
:1057AC005E4C013E0919189371E7202306989B1A49
:1057BC009840F2E71690B6E70B9B039A9B1A0B9353
:1057CC005342089300230F93C5E701230E93239BA9
:1057DC00002B65DD1F000D93049A546A0022626051
:1057EC0004321100143199425FD96168049800F0B9
:1057FC00DFFE049B20605B6A1B680A930E2F00D9A6
:10580C0005E1002D00D102E1069B079C1493159431
:10581C00039B002B00DC85E01A000F213C4B0A4057
:10582C00D2009B185C681B6810931194039B022494
:10583C001D11EB060AD53A4B0D401A6A5B6A149897
:10584C001599FBF719FA069007910134344E002D87
:10585C0030D1109A119B06980799FBF70DFA069018
:10586C0007917AE00123239A0E939446039B634499
:10587C005F1C0D933B1EAFDC0123ADE70023A5E7B6
:10588C000023F0E700230E952293013B00220D9399
:10589C001F00133323929FE701230E93023BF5E77E
:1058AC0001230D931F001A00F4E7616852000131C7
:1058BC00616096E701231D4208D010981199E418F5
:1058CC0032687368FBF70CFE109011916D1008365E
:1058DC00BDE7C0460000F07F0F27000011730008E1
:1058EC0014730008E4720008E57200080000F03F31
:1058FC0001FCFFFF0000F83F61436F63A787D23FB5
:10590C00B3C8608B288AC63FFB799F501344D33FA2
:10591C00A07300083204000012040000000010FE06
:10592C0078730008039B0224002B16D01498159949
:10593C005D420F23CA4A2B40DB00D3181A685B6800
:10594C00FBF7CEFD002306900791C64E2D11002DBE
:10595C0000D08CE0002B00D081E7169B002B00D1EF
:10596C0091E0069A079B10921193109811990022BE
:10597C00BD4BFAF769FD002800D184E0002F00D15F
:10598C0081E00D9B002B3EDD10981199039B0022AA
:10599C005E1EB64BFBF7A4FD069007910D9D0134DE
:1059AC002000FCF787FB069A079BFBF799FD00226A
:1059BC00AF4BFAF751FE12901391129B139CAD4A08
:1059CC0010931194139B9C181194002D5ED1069882
:1059DC0007990022A84BFCF703F8109A23000690B5
:1059EC000791FAF745FD002800D001E3A34813996D
:1059FC00844661440B0006980799109AFAF724FD27
:105A0C00002800D0E8E2149B159C069307941B9B7E
:105A1C00002B00DA57E1039A0E2A00DD53E1904B7C
:105A2C00D2009B185C681B6808930994239B002B7D
:105A3C0000DBCEE0002F00DDCBE000D0CFE20898F9
:105A4C00099900228C4BFBF74BFD069A079BFAF742
:105A5C0019FD3E000897002800D0A4E20A9B0A9A80
:105A6C005D1C31231370039B013303939FE20122CE
:105A7C00154205D0A41832687368FBF731FD012379
:105A8C006D10083663E7039E3D0089E70A9A691E8C
:105A9C00521917920E9A724BC900002A4AD05B1801
:105AAC001A685B6800207649FBF7E6F8109A119BA0
:105ABC00FBF796FF0A9B1090119112930698079989
:105ACC00FCF7C4FA0400FCF7F5FA02000B00069888
